:03000000020338C0
:0C033800787FE4F6D8FD75812802037F71
:100520000D0A00426C7565546F6F746820446174E5
:010530006169
:0901440012050E12047E1204AE35
:10014D00E4F51E7FDC7E051204291202A97F0A7ECA
:10015D00001204641202137F011204C27F80120484
:10016D00C2E4F51EE51E90052393FF1204D5051E6E
:10017D00E51EC3940E40ED7FC01204C2E4F51E745B
:10018D0015251EF8E6FF1204D5051EE51EC39409BC
:10019D0040EDE4F51E7F201204D5051EE51EC39427
:1001AD000240F2E4F51E7426251EF8E6FF1204D572
:1001BD00051EE51EC3940340ED7F4C1204D57F75DB
:1001CD001204D575082375092085150A85160B753A
:1001DD000C20851B0D851C0E750F2085261085277F
:1001ED001185281275132075142A7B007A00790861
:1001FD001204E87BFF7A0579201204E87F147E0053
:03020D0012046474
:0302100002014D9B
:03000B00020537B4
:03053700B2B73226
:03053A00DFFE22BF
:10042900D3EF9400EE940040147D6E7C00ED1D70B6
:0D043900011CED4C70F7EF1F70E61E80E314
:010446002293
:10049700D2B37F0212053AC2B37F147E0012042939
:0704A700D2B37F1E02053AEB
:10044700E4FEFD30B3FD7F0812053AEE25E0FE30ED
:0C045700B3010E20B3FD0DBD08E9AF0697
:010463002276
:1002A90012049730B30302033730B3FD7F281205D8
:1002B9003A1204478F1F1204478F201204478F21D7
:1002C900120447A9071204478F247F1912053AE53A
:1002D9001F2520FFE433FE7C00EF2521FFEC3EFEC5
:1002E900E92FFFEC3EFEEFB5240DECB50609AA1F78
:1002F900852022AB218923EA75F00A842430F5157B
:10030900EA75F00A84E5F02430F516751752751868
:1003190048751920751A20EB75F00A842430F51BED
:0E032900EB75F00A84E5F02430F51C751D43D9
:0103370022A3
:08040800C2868FA07F017E0077
:0A041000EF1FAC0670011E4C600ED9
:0E041A00E4F51FE51FC394FA50EC051F80F5B2
:0104280022B1
:1004C200C285C287120408D2857F057E00120410FD
:0304D200C28522BE
:1004D500C285D287120408D2857F057E00120410DA
:0304E500C28522AB
:10047E007F381204C27F0C1204C27F061204C27FA0
:09048E00011204C27F800204C2C5
:10050E00758920759850758DFA858D8B758780D27B
:02051E008E222B
:080003008F993099FDC299228A
:1004E80012000EFF600C120003740129F9E43AFAB5
:0304F80080EE2271
:0505310003260000009C
:1004FB00C2B6C2B4D2B4C2B430B5FDD2B685902563
:03050B00C2B62253
:100213001204FBAF25E4FCFDFE7BD87ABDF9F8128E
:100223000027E47BFFFAF9F81203C48F228E218D95
:10023300208C1FE47B107A27F9F81203C4EF2430D3
:10024300F526E47B107A27F9F8AF22AE21AD20AC76
:100253001F1203C4AC00AD01AE02AF03E47BE87A26
:1002630003F9F81203C4EF2430F527E47B107A274F
:10027300F9F8AF22AE21AD20AC1F1203C4AC00AD20
:1002830001AE02AF03E47BE87A03F9F81203C4ACCE
:1002930000AD01AE02AF03E47B64FAF9F81203C4C4
:0502A300EF2430F528F6
:0102A8002233
:1004AE00D2AF758922758CD8758AD8D28CD2A9C252
:0404BE00B4C2B622EC
:100464007C64EF4E60131CEC60087D0A1DED60F6A1
:0904740080FAEF1F70EC1E80E914
:01047D00225C
:10034400020144E493A3F8E493A34003F68001F28A
:1003540008DFF48029E493A3F85407240CC8C333BA
:10036400C4540F4420C8834004F456800146F6DF89
:10037400E4800B0102040810204080900531E47EE3
:10038400019360BCA3FF543F30E509541FFEE4937E
:10039400A360010ECF54C025E060A840B8E493A345
:1003A400FAE493A3F8E493A3C8C582C8CAC583CA70
:1003B400F0A3C8C582C8CAC583CADFE9DEE780BE28
:0105360000C4
:10000E00BB010689828A83E0225002E722BBFE02F0
:09001E00E32289828A83E4932223
:10002700E88FF0A4CC8BF0A42CFCE98EF0A42CFC78
:100037008AF0EDA42CFCEA8EF0A4CDA8F08BF0A4F6
:100047002DCC3825F0FDE98FF0A42CCD35F0FCEB55
:100057008EF0A4FEA9F0EB8FF0A4CFC5F02ECD391A
:0F006700FEE43CFCEAA42DCE35F0FDE43CFC2287
:1003C400C2D5E830E70FB2D5E4C39BFBE49AFAE464
:1003D40099F9E498F8EC30E717B2D51203FA120051
:1003E400B2E4C39BFBE49AFAE499F9E498F8800335
:1003F4001200B230D50DE4C39FFFE49EFEE49DFDE0
:04040400E49CFC2256
:1000760075F008758200EF2FFFEE33FECD33CDCC41
:1000860033CCC58233C5829BED9AEC99E5829840C4
:100096000CF582EE9BFEED9AFDEC99FC0FD5F0D6A1
:1000A600E4CEFBE4CDFAE4CCF9A88222B800C1B9CB
:1000B6000059BA002DEC8BF084CFCECDFCE5F0CB09
:1000C600F97818EF2FFFEE33FEED33FDEC33FCEB42
:1000D60033FB10D703994004EB99FB0FD8E5E4F9FD
:1000E600FA227818EF2FFFEE33FEED33FDEC33FCEA
:1000F600C933C910D7059BE99A4007EC9BFCE99ADE
:10010600F90FD8E0E4C9FAE4CCFB2275F010EF2F22
:10011600FFEE33FEED33FDCC33CCC833C810D70722
:100126009BEC9AE899400AED9BFDEC9AFCE899F85D
:0E0136000FD5F0DAE4CDFBE4CCFAE4C8F922F0
:00000001FF
