:0300000002036395
:0C036300787FE4F6D8FD7581290203AA1A
:10054B000D0A00426C7565546F6F746820446174BA
:01055B00613E
:090144001205391204A91204D9B4
:10014D00E4F51F7FDC7E051204541202D47F0A7E73
:10015D000012048F1202157F011204ED7F8012042C
:10016D00EDE4F51FE51F90054E93FF120500051FE9
:10017D00E51FC3940E40ED7FC01204EDE4F51F742E
:10018D0016251FF8E6FF120500051FE51FC394098C
:10019D0040EDE4F51F7F20120500051FE51FC394F8
:1001AD000240F2E4F51F7427251FF8E6FF12050043
:1001BD00051FE51FC3940340ED7F4C1205007F75AD
:1001CD0012050075082375092085160A85170B750C
:1001DD000C20851C0D851D0E750F2085271085287B
:1001ED001185291275132075142AE4F515FB7A0073
:1001FD0079081205137BFF7A05794B1205137F14CD
:05020D007E0012048FC9
:0302120002014D99
:03000B0002056289
:03056200B2B732FB
:03056500DFFE2294
:10045400D3EF9400EE940040147D6E7C00ED1D708B
:0D046400011CED4C70F7EF1F70E61E80E3E9
:010471002268
:1004C200D2B37F02120565C2B37F147E00120454B8
:0704D200D2B37F1E02056595
:10047200E4FEFD30B3FD7F08120565EE25E0FE3097
:0C048200B3010E20B3FD0DBD08E9AF066C
:01048E00224B
:1002D4001204C230B30302036230B3FD7F28120557
:1002E400651204728F201204728F211204728F22FD
:1002F400120472A9071204728F257F19120565E58D
:10030400202521FFE433FE7C00EF2522FFEC3EFE96
:10031400E92FFFEC3EFEEFB5250DECB50609AA204A
:10032400852123AB228924EA75F00A842430F5164A
:10033400EA75F00A84E5F02430F51775185275193A
:1003440048751A20751B20EB75F00A842430F51CBF
:0E035400EB75F00A84E5F02430F51D751E43AC
:010362002278
:08043300C2868FA07F017E004C
:0A043B00EF1FAC0670011E4C600EAE
:0E044500E4F520E520C394FA50EC052080F584
:010453002286
:1004ED00C285C287120433D2857F057E0012043B7C
:0304FD00C2852293
:10050000C285D287120433D2857F057E0012043B58
:03051000C285227F
:1004A9007F381204ED7F0C1204ED7F061204ED7FF4
:0904B900011204ED7F800204ED44
:10053900758920759850758DFA858D8B758780D250
:020549008E2200
:080003008F993099FDC299228A
:1005130012000EFF600C120003740129F9E43AFA89
:0305230080EE2245
:05055C00032700000070
:10052600C2B6C2B4D2B4C2B430B5FDD2B685902636
:03053600C2B62228
:10021500120526AF26E4FCFDFE7BD87ABDF9F8125F
:100225000027E47BFFFAF9F81203EF8F238E228D66
:10023500218C20C374509523FF74C39522FEE49549
:1002450021FDE49520FCE47B107A27F9F81203EFF1
:10025500EF2430F527C374509523FF74C39522FE10
:10026500E49521FDE49520FCE47B107A27F9F8124A
:1002750003EFAC00AD01AE02AF03E47BE87A03F90E
:10028500F81203EFEF2430F528C374509523FF745B
:10029500C39522FEE49521FDE49520FCE47B107ACC
:1002A50027F9F81203EFAC00AD01AE02AF03E47B12
:1002B500E87A03F9F81203EFAC00AD01AE02AF0323
:0E02C500E47B64FAF9F81203EFEF2430F52918
:0102D3002208
:1004D900D2AF758922758CD8758AD8D28CD2A9C227
:0404E900B4C2B622C1
:10048F007C64EF4E60131CEC60087D0A1DED60F676
:09049F0080FAEF1F70EC1E80E9E9
:0104A8002231
:10036F00020144E493A3F8E493A34003F68001F25F
:10037F0008DFF48029E493A3F85407240CC8C3338F
:10038F00C4540F4420C8834004F456800146F6DF5E
:10039F00E4800B010204081020408090055CE47E8D
:1003AF00019360BCA3FF543F30E509541FFEE49353
:1003BF00A360010ECF54C025E060A840B8E493A31A
:1003CF00FAE493A3F8E493A3C8C582C8CAC583CA45
:1003DF00F0A3C8C582C8CAC583CADFE9DEE780BEFD
:010561000099
:10000E00BB010689828A83E0225002E722BBFE02F0
:09001E00E32289828A83E4932223
:10002700E88FF0A4CC8BF0A42CFCE98EF0A42CFC78
:100037008AF0EDA42CFCEA8EF0A4CDA8F08BF0A4F6
:100047002DCC3825F0FDE98FF0A42CCD35F0FCEB55
:100057008EF0A4FEA9F0EB8FF0A4CFC5F02ECD391A
:0F006700FEE43CFCEAA42DCE35F0FDE43CFC2287
:1003EF00C2D5E830E70FB2D5E4C39BFBE49AFAE439
:1003FF0099F9E498F8EC30E717B2D51204251200FA
:10040F00B2E4C39BFBE49AFAE499F9E498F8800309
:10041F001200B230D50DE4C39FFFE49EFEE49DFDB4
:04042F00E49CFC222B
:1000760075F008758200EF2FFFEE33FECD33CDCC41
:1000860033CCC58233C5829BED9AEC99E5829840C4
:100096000CF582EE9BFEED9AFDEC99FC0FD5F0D6A1
:1000A600E4CEFBE4CDFAE4CCF9A88222B800C1B9CB
:1000B6000059BA002DEC8BF084CFCECDFCE5F0CB09
:1000C600F97818EF2FFFEE33FEED33FDEC33FCEB42
:1000D60033FB10D703994004EB99FB0FD8E5E4F9FD
:1000E600FA227818EF2FFFEE33FEED33FDEC33FCEA
:1000F600C933C910D7059BE99A4007EC9BFCE99ADE
:10010600F90FD8E0E4C9FAE4CCFB2275F010EF2F22
:10011600FFEE33FEED33FDCC33CCC833C810D70722
:100126009BEC9AE899400AED9BFDEC9AFCE899F85D
:0E0136000FD5F0DAE4CDFBE4CCFAE4C8F922F0
:00000001FF
