:0300000002023ABF
:0C023A00787FE4F6D8FD75811A020216E8
:1001C900E4FFC2B3C2B4D2B4C2B430B2FDD2B3AF49
:0301D90090C2B31E
:0101DC002200
:10010000E4FF74012FF8E2FE74002FF8EEF20FBF47
:1001100031F01201C97831EFF2E4FF74002FF8E2F8
:10012000251AF51AE43519F5190FBF32EEAE19AFDD
:0C0130001A7C007D321200AB8E178F1875
:01013C0022A0
:100216001202281201997FDC7E0512015E1200038C
:0202260080F462
:03024E00DFFE22AE
:10015E00D3EF9400EE940040147D6E7C00ED1D7084
:0D016E00011CED4C70F7EF1F70E61E80E3E2
:01017B002261
:1001B200D2A07F0212024EC2A07F147E0012015E04
:0701C200D2A07F1E02024ED5
:10017C00E4FEFD30A0FD7F0812024EEE25E0FE30BD
:0C018C00A0010E20A0FD0DBD08E9AF068B
:010198002244
:100003001201B230A00302009130A0FD7F2812023A
:100013004E12017C8F1112017C8F1212017C8F13FF
:1000230012017CA90712017C8F167F1912024EE57B
:10003300112512FFE433FE7C00EF2513FFEC3EFE97
:10004300E92FFFEC3EFEEFB5160DECB50609AA113C
:10005300851214AB138915EA75F00A842430F50868
:10006300EA75F00A84E5F02430F509750A52750B38
:1000730048750C20750D20EB75F00A842430F50EBD
:0E008300EB75F00A84E5F02430F50F7510439C
:01009100224C
:08013D00C2A58F807F017E0046
:0A014500EF1FAC0670011E4C600EA7
:0E014F00E4F511E511C394FA50EC051180F5AA
:01015D00227F
:1001DD00C2A7C2A612013DD2A77F057E001201451E
:0301ED00C2A72284
:1001F000C2A7D2A612013DD2A77F057E00120145FB
:03020000C2A72270
:100199007F381201DD7F0C1201DD7F061201DD7F40
:0901A900011201DD7F800201DD7D
:10022800758920759850758DFA858D8B758780D264
:020238008E2214
:080246008F993099FDC2992245
:10020300120092FF600C120246740129F9E43AFAD3
:0302130080EE2258
:10009200BB010689828A83E0225002E722BBFE026C
:0900A200E32289828A83E493229F
:1000AB00BC000BBE0029EF8DF084FFADF022E4CC39
:1000BB00F875F008EF2FFFEE33FEEC33FCEE9DEC02
:1000CB00984005FCEE9DFE0FD5F0E9E4CEFD22ED48
:1000DB00F8F5F0EE8420D21CFEADF075F008EF2F92
:1000EB00FFED33FD4007985006D5F0F222C398FD83
:0500FB000FD5F0EA2220
:00000001FF
