:03000000020310E8
:0C031000787FE4F6D8FD758126020357C3
:1004F8000D0A00426C7565546F6F7468204461740E
:010508006191
:090144001204E6120456120486AE
:10014D00E4F51C7FDC7E051204011202817F0A7E1C
:10015D000012043C1201EB7F0112049A7F801204FD
:10016D009AE4F51CE51C9004FB93FF1204AD051CED
:10017D00E51CC3940E40ED7FC012049AE4F51C7487
:10018D0013251CF8E6FF1204AD051CE51CC39409EC
:10019D0040EDE4F51C7424251CF8E6FF1204AD05B2
:1001AD001CE51CC3940340ED7508238513098514C4
:1001BD000A750B2085190C851A0D750E2085240FD7
:1001CD008525108526117512237B007A007908127A
:0B01DD0004C07BFF7A0479F81204C014
:0301E80002014DC4
:03000B0002050FDC
:03050F00B2B7324E
:03051200DFFE22E7
:10040100D3EF9400EE940040147D6E7C00ED1D70DE
:0D041100011CED4C70F7EF1F70E61E80E33C
:01041E0022BB
:10046F00D2B37F02120512C2B37F147E00120401B1
:07047F00D2B37F1E0205123B
:10041F00E4FEFD30B3FD7F08120512EE25E0FE303D
:0C042F00B3010E20B3FD0DBD08E9AF06BF
:01043B00229E
:1002810012046F30B30302030F30B3FD7F28120550
:100291001212041F8F1D12041F8F1E12041F8F1FA5
:1002A10012041FA90712041F8F227F19120512E5DC
:1002B1001D251EFFE433FE7C00EF251FFFEC3EFEF3
:1002C100E92FFFEC3EFEEFB5220DECB50609AA1DA4
:1002D100851E20AB1F8921EA75F00A842430F513AD
:1002E100EA75F00A84E5F02430F514751552751697
:1002F10048751720751820EB75F00A842430F5191C
:0E030100EB75F00A84E5F02430F51A751B4305
:01030F0022CB
:0803E000C2868FA07F017E00A0
:0A03E800EF1FAC0670011E4C600E02
:0E03F200E4F51DE51DC394FA50EC051D80F5E1
:0104000022D9
:10049A00C285C2871203E0D2857F057E001203E877
:0304AA00C28522E6
:1004AD00C285D2871203E0D2857F057E001203E854
:0304BD00C28522D3
:100456007F3812049A7F0C12049A7F0612049A7F40
:090466000112049A7F8002049A3D
:1004E600758920759850758DFA858D8B758780D2A4
:0204F6008E2254
:080003008F993099FDC299228A
:1004C00012000EFF600C120003740129F9E43AFADD
:0304D00080EE2299
:050509000324000000C6
:1004D300C2B6C2B4D2B4C2B430B5FDD2B68590238D
:0304E300C2B6227C
:1001EB001204D3AF23E4FCFDFE7BD87ABDF9F812E1
:1001FB000027E47BFFFAF9F812039C8F208E1F8DEA
:10020B001E8C1DE47B107A27F9F812039CEF243027
:10021B00F524E47B107A27F9F8AF20AE1FAD1EACA6
:10022B001D12039CAC00AD01AE02AF03E47BE87A78
:10023B0003F9F812039CEF2430F525E47B107A27A1
:10024B00F9F8AF20AE1FAD1EAC1D12039CAC00AD78
:10025B0001AE02AF03E47BE87A03F9F812039CAC1E
:10026B0000AD01AE02AF03E47B64FAF9F812039C14
:05027B00EF2430F52620
:01028000225B
:10048600D2AF758922758CD8758AD8D28CD2A9C27A
:04049600B4C2B62214
:10043C007C64EF4E60131CEC60087D0A1DED60F6C9
:09044C0080FAEF1F70EC1E80E93C
:010455002284
:10031C00020144E493A3F8E493A34003F68001F2B2
:10032C0008DFF48029E493A3F85407240CC8C333E2
:10033C00C4540F4420C8834004F456800146F6DFB1
:10034C00E4800B0102040810204080900509E47E33
:10035C00019360BCA3FF543F30E509541FFEE493A6
:10036C00A360010ECF54C025E060A840B8E493A36D
:10037C00FAE493A3F8E493A3C8C582C8CAC583CA98
:10038C00F0A3C8C582C8CAC583CADFE9DEE780BE50
:01050E0000EC
:10000E00BB010689828A83E0225002E722BBFE02F0
:09001E00E32289828A83E4932223
:10002700E88FF0A4CC8BF0A42CFCE98EF0A42CFC78
:100037008AF0EDA42CFCEA8EF0A4CDA8F08BF0A4F6
:100047002DCC3825F0FDE98FF0A42CCD35F0FCEB55
:100057008EF0A4FEA9F0EB8FF0A4CFC5F02ECD391A
:0F006700FEE43CFCEAA42DCE35F0FDE43CFC2287
:10039C00C2D5E830E70FB2D5E4C39BFBE49AFAE48C
:1003AC0099F9E498F8EC30E717B2D51203D21200A1
:1003BC00B2E4C39BFBE49AFAE499F9E498F880035D
:1003CC001200B230D50DE4C39FFFE49EFEE49DFD08
:0403DC00E49CFC227F
:1000760075F008758200EF2FFFEE33FECD33CDCC41
:1000860033CCC58233C5829BED9AEC99E5829840C4
:100096000CF582EE9BFEED9AFDEC99FC0FD5F0D6A1
:1000A600E4CEFBE4CDFAE4CCF9A88222B800C1B9CB
:1000B6000059BA002DEC8BF084CFCECDFCE5F0CB09
:1000C600F97818EF2FFFEE33FEED33FDEC33FCEB42
:1000D60033FB10D703994004EB99FB0FD8E5E4F9FD
:1000E600FA227818EF2FFFEE33FEED33FDEC33FCEA
:1000F600C933C910D7059BE99A4007EC9BFCE99ADE
:10010600F90FD8E0E4C9FAE4CCFB2275F010EF2F22
:10011600FFEE33FEED33FDCC33CCC833C810D70722
:100126009BEC9AE899400AED9BFDEC9AFCE899F85D
:0E0136000FD5F0DAE4CDFBE4CCFAE4C8F922F0
:00000001FF
